:020000040800F2
:10000000E84F002021020008D30D0008A5090008D0
:10001000D10D00082D05000811180008000000008F
:10002000000000000000000000000000890100083E
:10003000E106000800000000CD0100089129000839
:100040003B0200083B0200083B0200083B0200089C
:100050003B0200083B0200083B0200083B0200088C
:100060003B0200083B0200083B0200083B0200087C
:100070003B0200083B0200083B0200083B0200086C
:100080003B0200083B0200083B0200083B0200085C
:100090003B0200083B0200083B0200083B0200084C
:1000A0003B0200083B0200083B0200083B0200083C
:1000B0003B0200083B0200083B0200083B0200082C
:1000C0003B0200083B0200083B0200083B0200081C
:1000D0003B0200081D1500083B02000895150008AA
:1000E0003B0200083B0200083B02000800F002F857
:1000F00000F03AF80AA090E8000C82448344AAF188
:100100000107DA4501D100F02FF8AFF2090EBAE885
:100110000F0013F0010F18BFFB1A43F0010318473B
:100120005035000070350000103A24BF78C878C1FF
:10013000FAD8520724BF30C830C144BF04680C60ED
:10014000704700000023002400250026103A28BF35
:1001500078C1FBD8520728BF30C148BF0B60704739
:100160001FB51FBD10B510BD00F071F91146FFF7A6
:10017000F7FF01F04DFD00F08FF903B4FFF7F2FF38
:1001800003BC00F093F90000224B19680868B0E83E
:10019000F00F80F30988BFF36F8F4FF0000080F3FA
:1001A00011884EF00D0E70470000000006480068F0
:1001B000006880F3088862B661B6BFF34F8FBFF363
:1001C0006F8F00DF00BF00BF08ED00E0EFF3098094
:1001D000BFF36F8F0F4B1A6820E9F00F106008B55E
:1001E0004FF0BF0080F31188BFF34F8FBFF36F8FC5
:1001F00002F08EFB4FF0000080F31188BDE808404C
:1002000019680868B0E8F00F80F30988BFF36F8FB2
:10021000704700BF64000020EFF3058070470000C6
:100220000948804709480047FEE7FEE7FEE7FEE78A
:10023000FEE7FEE7FEE7FEE7FEE7FEE704480549C6
:10024000054A064B704700005D140008ED000008E9
:10025000E8490020E84F0020E84B0020E84B002050
:1002600040EA010310B59B070FD1042A0DD310C833
:1002700008C9121F9C42F8D020BA19BA884201D985
:10028000012010BD4FF0FF3010BD1AB1D30703D0CD
:10029000521C07E0002010BD10F8013B11F8014B83
:1002A0001B1B07D110F8013B11F8014B1B1B01D19F
:1002B000921EF1D1184610BD032A40F2308010F092
:1002C000030C00F0158011F8013BBCF1020F6244F1
:1002D00098BF11F801CB00F8013B38BF11F8013B82
:1002E000A2F1040298BF00F801CB38BF00F8013B2F
:1002F00011F0030300F02580083AC0F0088051F89F
:10030000043B083A51F804CBA0E80810F5E7121DA9
:100310005CBF51F8043B40F8043BAFF30080D207C8
:1003200024BF11F8013B11F801CB48BF11F8012B94
:1003300024BF00F8013B00F801CB48BF00F8012BB7
:10034000704710B5203AC0F00B80B1E81850203A41
:10035000A0E81850B1E81850A0E81850BFF4F5AF65
:100360005FEA027C24BFB1E81850A0E8185044BFEF
:1003700018C918C0BDE810405FEA827C24BF51F85C
:10038000043B40F8043B08BF7047D20728BF31F850
:10039000023B48BF11F8012B28BF20F8023B48BFA1
:1003A00000F8012B704702F0FF0343EA032242EA00
:1003B000024200F002B84FF000020429C0F012809F
:1003C00010F0030C00F01E80CCF1040CBCF1020F05
:1003D00018BF00F8012BA8BF20F8022BA1EB0C01DD
:1003E00000F010B85FEAC17C24BF00F8012B00F8D0
:1003F000012B48BF00F8012B7047704770477047CA
:100400004FF0000200B5134694469646203922BFAD
:10041000A0E80C50A0E80C50B1F12001BFF4F7AFF8
:10042000090728BFA0E80C5048BF0CC05DF804EBDA
:10043000890028BF40F8042B08BF704748BF20F848
:10044000022B11F0804F18BF00F8012B7047754642
:1004500000F028F8AE4605006946534620F0070034
:10046000854618B020B5FFF7E9FEBDE820404FF003
:1004700000064FF000074FF000084FF0000B21F08E
:100480000701AC46ACE8C009ACE8C009ACE8C0095B
:10049000ACE8C0098D4670470446AFF300802046A3
:1004A000FFF76BFE0048704784490020014918207F
:1004B000ABBEFEE726000200704700001CB51648E0
:1004C0008178002927D0C078002824D013A00722E3
:1004D000D0E90010CDE9001069461248FFF7C0FED0
:1004E000002818D010487B220E4902700F2242705B
:1004F000022282700122C270027100224271827156
:100500008A79C2710A688260898881817D218173BC
:100510000F2100F0F5FE1CBD20000020FFFFFFFFB3
:10052000FFFFFF005500002098050020FEE70000B7
:100530004FF47A780124394D00F03EFA68780028AB
:1005400046D101F0CBF9A0F59051E9393AD10C230D
:1005500033A20321002000F099FB4FF4FA773846CC
:1005600001F04AFA384601F047FA314EB07901F00D
:1005700053FF384601F040FA384601F03DFAB079B1
:1005800001F01EFF384601F037FA384601F034FA20
:100590006C70012000F0C6FA022000F0C3FA0320BC
:1005A00000F0C0FA042000F0BDFA052000F0BAFA0D
:1005B000062000F0B7FA072000F0B4FA0B231DA2C2
:1005C000012102E00E231EA20321002000F05EFBA9
:1005D000404602F0DBF868780028ADD0287960B199
:1005E00000202871A878012804D00028A4D107236E
:1005F00017A20AE0072318A207E02C71A8780128A7
:1006000008D0002898D1072315A200210E2000F061
:100610003DFB91E7072314A2F7E70000200000202C
:100620005A422070726F206F6B2E2E2E0000000039
:100630005C0000205A4220496E69742E6F6B2E00B8
:100640005A422070726F204641494C2E2E2E0000D7
:1006500020202020202E2E004F4E455F4D2E2E00B4
:1006600020202020202E20004F4E455F4D2E2000C0
:1006700070B500210723154A084601F0E1F9134C33
:1006800000256079032807D1032211A12046FFF736
:10069000E7FD10F0FF0F11D06D2020706F2060700B
:1006A0006420A07003206071A571002001F0B2F9F0
:1006B00000210723054A084601F0F0F90549A07911
:1006C0004872054805800548058070BD5C00002023
:1006D0006D6F640020000020180000201A00002028
:1006E0007047000070B505464FF43026304600F0E4
:1006F00059F8042811D1094C206940F0020020610A
:100700006561206940F040002061304600F04AF801
:10071000216941F6FD721140216170BD0020024047
:1007200008490420CA68D20701D001207047CA686E
:10073000520701D502207047C968C906FBD50320BE
:1007400070470000002002400248016941F080012A
:100750000161704700200240F0B506464FF4005793
:100760000D46384600F01EF804280CD1064C2069CE
:1007700040F0010020613580384600F013F821690F
:10078000BA1E11402161F0BD002002400348024919
:1007900041600349416070472301674500200240E2
:1007A000AB89EFCD00B50346FFF7BAFF02E0FFF7D4
:1007B000B7FF5B1E012803D0002B00D1052000BD30
:1007C000002BF4D1FAE7000008B50121082000F061
:1007D00069FC0420ADF8000010208DF80300012012
:1007E0008DF802006946024800F004F808BD0000D8
:1007F000000C0140F0B5CC78002204F00F03E406B1
:1008000001D58C7823430C784FF00F0C4FF0010E7C
:10081000DCB105680E880EFA02F42640A64210D11B
:1008200096000CFA06F725EA070703FA06F5CE78D4
:100830003D43282E02D0482E02D002E0446100E061
:100840000461521C082AE5D305600A88FF2A1CD9D6
:100850004468002202F108060EFA06F50E882E40C2
:10086000AE420ED196000CFA06F7BC4303FA06F727
:10087000CE783C43282E00D14561CE78482E00D159
:100880000561521C082AE5D34460F0BDF0B5144C54
:10089000002801DAE36900E06368450D2E0185B2A6
:1008A000C0F30157B540C0F30342032F05D0C60281
:1008B0000AD503269640B34307E023F070626368CD
:1008C00023F07063636002E0AB4343F0706201B1F8
:1008D0002A43002801DAE261F0BD6260F0BD000049
:1008E00000000140416170470161704738B5002444
:1008F0000094FFF769FF00F033F900F08DF800F085
:10090000ADFF4FF4E135284601F0A8FD284601F07F
:10091000FDFDFFF7ADFE1B488179102900D38471DE
:100920008079694601F090F904460021022316A25D
:10093000084600F0ABF9042314A20021062000F0C1
:10094000A5F923466A4600210A2000F09FF90220FB
:1009500000F0E8F8032000F0E5F80B230DA20121D8
:10096000002000F093F9FF224FF42F710C48FFF79D
:100970001AFD40F2E241062000F020F800F01CF8D9
:1009800038BD00005C000020475700004E65743AF7
:10099000000000005A4220636865636B2E2E2E0013
:1009A00085090020FEE7000002494CF6CC400860B3
:1009B000704700000030004000F014B870B50446E5
:1009C0000D4645F2555000F021F8204600F012F88F
:1009D000284600F015F800F005F8BDE87040FFF774
:1009E000E3BF000002494AF6AA20086070470000F1
:1009F000003000400149486070470000003000406E
:100A000001498860704700000030004001490860DB
:100A1000704700000030004008B50121042000F0BC
:100A200041FBE020ADF8000028208DF803000120F4
:100A30008DF8020069460248FFF7DCFE08BD0000A1
:100A4000000801401CB50024284D0127264668797E
:100A500030B101280DD0022811D003282AD11AE084
:100A600000F028FF18B16F71A871EE7122E0AE712D
:100A70000FE0E87908B1022009E0EF711AE000F018
:100A800019FF30B1A979884203D12E720320687111
:100A900010E06E710EE000F00DFFA979814207D1E0
:100AA000287A322801D3032405E0401C287201E093
:100AB0006E7198B174B18DF80040A8798DF801007D
:100AC00002F060F9002301901A466946286A01F095
:100AD000CBFF00240A2001F059FEB8E7287A32281B
:100AE00001D30424E7E70224E5E70000200000200A
:100AF00070B5002505F1B000C0B200F0FDF800208F
:100B000000F0FAF8102000F0F7F80024002000F0C0
:100B100023F9641CE4B2802CF8D36D1CEDB2082DCF
:100B2000E8D370BDC00610B5010E002000F09AF8A1
:100B30000024002000F010F9641CE4B2802CF8D3EB
:100B400010BD43F6982307E019460A00A1F1010100
:100B500089B2FAD1401E80B20028F5D1704700005A
:100B6000F8B501210C2000F09DFA4FF43040ADF8AB
:100B700000001025394F8DF8035001268DF80260D2
:100B800069463846FFF736FE2C01ADF800408DF877
:100B90000350334D8DF8026069462846FFF72AFE60
:100BA00061013846FFF7A0FE21462846FFF79AFE6E
:100BB0006420FFF7C6FF21462846FFF795FEAE20CA
:100BC00000F09AF8D52000F097F8802000F094F813
:100BD000A82000F091F83F2000F08EF8D32000F01C
:100BE0008BF8002000F088F8402000F085F88D2078
:100BF00000F082F8142000F07FF8202000F07CF84C
:100C0000022000F079F8A12000F076F8C82000F06A
:100C100073F8DA2000F070F8122000F06DF88120EF
:100C200000F06AF87F2000F067F8D92000F064F83F
:100C3000F12000F061F8DB2000F05EF8302000F0D9
:100C40005BF8A42000F058F8A62000F055F8AF207B
:100C500000F052F8FFF74CFFF8BD0000000C014017
:100C60000008014010B50446B02000EBD100C0B22E
:100C700000F042F8102040EA141000F03DF804F0B3
:100C80000F00BDE8104000F037B800002DE9F04734
:100C90009946174600EB0902152A29D8082927D8B2
:100CA00000EB4000C9064006090E000EFFF7DAFF10
:100CB00000264FF6FF7ADFF83C8017E038782038BE
:100CC000602801D3002403E000EB40010AEA41045C
:100CD000002518F80400641CA4B200F03DF86D1C57
:100CE000EDB2062DF5D37F1C761CF6B24E45E5D34A
:100CF000BDE8F087103400082DE9F041154E054697
:100D0000082461023046FFF7EDFDA7023946304660
:100D1000FFF7E8FD00BF4FF4004814E02806414605
:100D2000304602D5FFF7E0FD01E0FFF7DBFD394675
:100D30003046FFF7D9FD00BF00BF39463046FFF708
:100D4000D1FD6806050E2000A4F10104E4B2E5D14E
:100D5000BDE8F081000C01402DE9F041154E05463B
:100D6000082461023046FFF7BFFDA702394630462E
:100D7000FFF7B8FD00BF4FF4004814E028064146D5
:100D8000304602D5FFF7B0FD01E0FFF7ABFD394675
:100D90003046FFF7A9FD00BF00BF39463046FFF7D8
:100DA000A1FD6806050E2000A4F10104E4B2E5D11E
:100DB000BDE8F081000C0140014904200860704743
:100DC000140C01400149042008607047100C0140D8
:100DD000FEE7704770B50F23C278017801244FF009
:100DE000E025DAB1124A126802F4E062C2F5E0626C
:100DF000120AC2F10406D3404278B24086781E40FF
:100E00000C4B16433201CA54007800F01F018C408D
:100E1000400905EB8000C0F8004170BD01F01F00E3
:100E20008440480905EB8000C0F8804170BD000097
:100E30000CED00E000E400E02DE9F04FDFF8DC917C
:100E40000127774C87B00025206A0028FCD04FF09E
:100E5000FF3203A901F0BCFE0028F5D09DF80C106C
:100E60009DF80D00049E022923D0042971D0012889
:100E7000EAD10095607800286CD0607A401CC0B23E
:100E80006072102800D365726946607A00F0DCFE5B
:100E900006460120FFF746FE042362A2012100203E
:100EA000FFF7F4FE33466A4601210420FFF7EEFE09
:100EB000CAE7012812D0022856D00428C4D15BA06A
:100EC000D0E90010CDE9001099F806008DF8030074
:100ED0002078E8B325708DF804704EE04FF4FA786E
:100EE00042466946206A01F073FEE8B19DF80110A0
:100EF0009DF8002001980129A6D1022AA4D1801BC7
:100F00004045A1D26078002824D0617A89F8061083
:100F1000002000F07FFD00210723404A084600F032
:100F2000BDFD00F089FA8FE702956078002872D045
:100F3000607A401CC0B26072102800D3657202A9AA
:100F4000607A00F081FE06460120FFF7EBFD02E02B
:100F500010E017E05FE0042332A201210020FFF738
:100F600095FE334602AA9FE7A07808B1A5706BE70B
:100F7000A77069E727708DF804500621684600F0D5
:100F800049FC61E7022893D1E06801F043FB05903A
:100F9000206901F03FFB8346606901F03BFB82461C
:100FA000A06901F037FB8046E06901F033FB06469B
:100FB0006946059800F048FE684600F0AEF920202A
:100FC00000F086F96946584600F03EFE684600F09B
:100FD000A4F9202000F07CF96946504600F034FE68
:100FE000684600F09AF9202000F072F96946404600
:100FF00000F02AFE684600F090F9202000F068F921
:101000006946304600F020FE684600F086F9202050
:1010100000F05EF918E707B0BDE8F08F5C00002033
:10102000200000204E65743A000000007E0601009A
:10103000FF5E00001CB50D488078002814D07E208B
:101040008DF8000008208DF801001E208DF80200A8
:1010500007480821D0F80200CDF803005E208DF883
:101060000700684600F0D6FB1CBD000020000020F1
:1010700055000020044A0029D16901D0014300E055
:101080008143D1617047000000100240044A0029EA
:10109000116901D0014300E08143116170470000F4
:1010A00000100240044A0029916901D0014300E088
:1010B000814391617047000000100240044A0029FA
:1010C000D16801D0014300E08143D1607047000046
:1010D0000010024030B5204A5168204B11F00C013D
:1010E00003D0042901D0082901D0036012E051681F
:1010F000536801F470114FF0020413F4803F04EBC5
:10110000914102D053689B0301D5154B00E0134B6E
:101110005943016051680F2303EA1111114B5C5CC4
:101120000168E14041605468072505EA14241C5D0C
:1011300021FA04F48460546805EAD4241B5DD94084
:10114000C1605268032303EA9232064B1B1F9A5C6C
:10115000B1FBF2F1016130BD0010024000127A00D3
:1011600000093D00040000207CB501F095FA3549E6
:101170000220CDE900010023802233A1354801F08F
:10118000C7FD30490320091DCDE90001002380225D
:1011900031A1344801F0BCFD2A4904200831CDE9D1
:1011A000000100234FF4FA722FA1344801F0B0FD82
:1011B000244905200C31CDE900010023802230A113
:1011C000324801F0A5FD324801234FF47A750090B2
:1011D0001A4629462FA001F0B5FE1A4C0223103CF6
:1011E000002260622F48009029462FA001F0AAFE3D
:1011F000A062314800900323002232212FA001F089
:10120000A1FEE0622F4800900423002232212EA08C
:1012100001F098FE206301F0B5FD02460020034670
:1012200000900121606A01F0C7FE00220821012020
:1012300001F0C4FB2062E06801F0C0FABDE87C4028
:1012400001F038BA300000204F4C45445F746173A0
:101250006B000000390E0008436865636B5F7461C2
:10126000736B00003105000855534152545F5458C8
:101270005F43616C6C5F7461736B0000D51700088D
:101280004B45595F7461736B00000000450A00080C
:10129000BD0400084175746F52656C6F61645469D8
:1012A0006D657200351000084F6E6553686F745499
:1012B000696D657200000000AD1400085531525888
:1012C00000000000DD1400085533525800000000F3
:1012D00070B50A4E01460024304600F077FA42F21B
:1012E000107503E0641CA4B2AC4205D280213046E4
:1012F00000F0D0F90028F5D070BD000000380140A2
:1013000070B50C46054605E02878FFF7E1FF6D1C37
:10131000641EA4B2002CF7D170BD10B5044602E0E3
:10132000FFF7D6FF641C20780028F9D110BD00001B
:1013300070B50A4E01460024304600F047FA42F2EA
:10134000107503E0641CA4B2AC4205D28021304683
:1013500000F0A0F90028F5D070BD00000048004062
:1013600070B50C46054605E02878FFF7E1FF6D1CD7
:10137000641EA4B2002CF7D170BD10B5044602E083
:10138000FFF7D6FF641C20780028F9D110BD0000BB
:101390000CB50022264800920192016841F4803188
:1013A00001604FF4A063016801F4003101910099DC
:1013B000491C0091019911B900999942F3D1016832
:1013C000890333D5012101911A490A6842F01002BC
:1013D0000A600A6822F003020A600A6842F0020208
:1013E0000A604168416041684160416841F4806140
:1013F0004160416821F47C114160416841F4E81189
:101400004160016841F08071016001688901FCD58B
:10141000416821F003014160416841F002014160EF
:101420004168C1F381010229FAD10CBD0192FEE7A6
:101430000010024000200240012080F3138805487C
:101440000168054A01F4E06111430160BFF3408F78
:10145000FEE700000CED00E00400FA050F4810B5AF
:10146000016841F00101016041680D4A114041608D
:1014700001680C4A11400160016821F4802101607B
:10148000416821F4FE0141604FF41F018160FFF7C4
:101490007FFF05494FF00060086010BD001002405A
:1014A0000000FFF8FFFFF6FE08ED00E0084810B569
:1014B000048800210180224606490748FEF7FCFE09
:1014C000E1B2054801F078F8BDE81040FFF77ABCBA
:1014D0001C000020980300209804002070B50C4CDC
:1014E0002588FFF76FFC22880A490B48FEF7E4FEC7
:1014F000094800787E2803D029460748FFF700FFF7
:10150000002020802946BDE87040034801F0FABE63
:101510001A00002098010020980200201CB5184CE9
:1015200040F22551204600F0BCF8002826D0204685
:1015300000F048F9134C2188FE291FD22188124A55
:10154000C1F30D015054FFF737FC2088401C208068
:1015500001F01EFC0246002000900C4801AB072160
:10156000006801F029FD0198002807D008494FF0D4
:1015700080500860BFF34F8FBFF36F8F1CBD00001A
:10158000003801401C000020980300204C0000207F
:1015900004ED00E01CB5184C40F22551204600F047
:1015A00080F8002826D0204600F00CF9134C218842
:1015B000FE291FD22188124AC1F30D015054FFF7B2
:1015C000FBFB2088401C208001F0E2FB024600204B
:1015D00000900C4801AB0721006801F0EDFC019878
:1015E000002807D008494FF080500860BFF34F8FA4
:1015F000BFF36F8F1CBD0000004800401A000020A0
:10160000980100205000002004ED00E000298189AD
:1016100002D041F4005101E021F400518181704772
:10162000174910B588420AD101218C032046FFF7E3
:1016300045FD2046BDE810400021FFF73FBD1149A0
:10164000884202D101214C0410E00F49884202D1A6
:1016500001218C040AE00D49884202D10121CC0409
:1016600004E00B4988420AD101210C052046FFF70E
:101670000DFD2046BDE810400021FFF707BD10BD5D
:10168000003801400044004000480040004C004049
:10169000005000400246002012880A4200D001207B
:1016A000704770B501F01F0501260024C1F34213F5
:1016B00006FA05F2012B0FD0022B0FD0838A4FEAD6
:1016C00011210088134206FA01F600EA060001D053
:1016D00000B10124204670BD8389F0E7038AEEE75C
:1016E00010B5C1F3421301F01F040121A140012BE9
:1016F00007D0022B07D01430002A026805D00A4315
:1017000004E00C30F8E71030F6E78A43026010BDC1
:1017100030B50446008A85B00D464CF6FF7108408E
:10172000E98801432182A0894EF6F3110840A98877
:101730002A8911436A8902431143A181A08A4FF685
:10174000FF410840A9890143A1826846FFF7C2FC16
:101750001B48844201D1039800E00298A189090442
:10176000002900EBC00101EB0010296802DA4FEA02
:10177000410101E04FEA8101B0FBF1F06422B0FBCE
:10178000F2F14FEA01114FEA11136FF018056B43A4
:1017900000EB8300A3891D044FF0320306D503EB51
:1017A000C000B0FBF2F000F0070005E003EB001012
:1017B000B0FBF2F000F00F000843208105B030BD0F
:1017C000003801408088C0F308007047C1F3080169
:1017D000818070470B4E0025348874B15A2C3580B7
:1017E0000BD8224608490948FEF766FD21460748FE
:1017F000FFF7B6FDC82000F0C9FF0A2000F0C6FFC1
:10180000EAE700001800002034010020D00000208A
:10181000FEE7000070B5084D0C4601462888021905
:10182000642A07D8054A10442246FEF745FD288859
:101830002044288070BD00001800002034010020E2
:1018400010B505484FF4804404600A2000F0D4F835
:101850000148001F046010BD1408014038B5012183
:101860000846FFF71FFC01210C48FFF70FF8012184
:101870000420FFF717FC4FF48044ADF8004010201F
:101880008DF8030001208DF8020069460448FEF738
:10189000B1FF03481030046038BD00000004300080
:1018A00000080140884201D3401A7047C9430844E8
:1018B000704700000848D0F8141109B101207047A2
:1018C000D0F8181109B102207047D0F81C01002887
:1018D000FAD0042070470000000021422DE9FF47A4
:1018E0003BA090E80E00C068CDE90012CDE90230BF
:1018F00001F048FA3A4C0027824627806846FFF7F5
:101900003CFD4FF47A79374D374E01F03BFA804673
:101910005146FFF7C7FF484503D9002004B0BDE892
:10192000F0872088F0B340462968FFF7BBFF1E28E8
:10193000EBD922882D492C48FEF7BEFCC5F8008063
:10194000208844280DD130780D280AD170780A28D3
:1019500007D196F842000D2803D196F843000A28D3
:1019600001D02780D1E7223630787178303800EB0B
:10197000800001EB4002B1784FF47A704143F07877
:1019800000EBC00303EB001001EB80001044A0F556
:101990004E40703884B2072315A202210020FFF7C1
:1019A00075F900E00FE0104A02232432194607209F
:1019B000FFF76CF90C4A0223223219460920FFF77F
:1019C00065F92046AAE70A2000F0E0FE9DE7000046
:1019D00041542B53484F57504152413D3031000044
:1019E0001A00002014000020980200209801002016
:1019F0005A422070726F3D00002242F2107306E0DE
:101A00000021491C89B29942FBD3521C92B28242F6
:101A1000F6D3704710B50849404201EB80240748CF
:101A2000844208D2FEF7B2FE2046FEF75BFEBDE818
:101A30001040FEF789BE10BD00FC00080000010840
:101A40002DE9F041404201EB8020134900261F465A
:101A500014464518B046FEF799FEF80713D07F1ECE
:101A600007EBD7712888B6EB610F04DAAD1C761C42
:101A700024F8020BF6E7000A207007E035F8020BA5
:101A8000761C24F8020BB6EB570FF7DBFEF75CFE73
:101A90000FFA88F0BDE8F08100FC00082DE9F04164
:101AA000404201EB8020194900259846144646180B
:101AB0002F46FEF76BFE5FEAC8701FD0A8F1010841
:101AC00045450ADA21883046FEF746FE07460428D7
:101AD00016D1B61CA41CAD1CF2E7207801023046DA
:101AE000FEF73AFE07460BE021883046FEF734FE4B
:101AF0000746042804D1B61CA41CAD1C4545F3DBE5
:101B0000FEF722FE38B2BDE8F081000000FC0008BC
:101B100070B5084A0D460446127822B1A07A122800
:101B200001D3FFF78DFE29462046BDE87040FFF740
:101B3000E7BB0000220000202DE9FC41804615A0F3
:101B40000F46D0E90010CDE90010002514466426A8
:101B5000062221464046FEF783FB98B10622214625
:101B60006846FEF77DFB98B16D1CE41DEDB2642D57
:101B7000EED3642E0AD0D8F800102160B8F8040023
:101B8000A08002E0A079B84200D0A771BDE8FC8136
:101B90002E46EEE7FFFFFFFFFFFF00007CB5054686
:101BA0000BA00024D0E90010CDE900100622294640
:101BB0006846FEF755FB30B1641CED1DE4B2642CA1
:101BC000F4D364207CBD0CB120467CBD65207CBD77
:101BD000FFFFFFFFFFFF000010B50024027813098C
:101BE00002F00F02092B01D8303300E0373301F83F
:101BF000013B092A01D8303200E03732641C401C16
:101C0000E4B201F8012B042CE8D3002010BD000041
:101C10001CB5FEF76BFE07490120CDE9000100234A
:101C2000802205A1074801F073F800F03BFE002078
:101C30001CBD00002C00002053544152545F7461BD
:101C4000736B0000691100083EB500220A236D463F
:101C50000446B0FBF3F003FB10443034AC5418B12D
:101C6000521CD2B20A2AF3D3521CD0B2002206E090
:101C7000831A2B4413F8013C8B54521CD2B282427B
:101C8000F6D300238B543EBD2DE9F041134E0F4691
:101C90000446F5683068001D00F0A8FC601C07D100
:101CA00037B13168BDE8F041091D0D4800F0E8BCCE
:101CB00030682C44AC424460316801F1040104D224
:101CC000B06BBDE8F04100F0C3BC706B00F0C0FC2D
:101CD000B06A844200D2B462BDE8F08164000020A2
:101CE000480D00202DE9F041054600F0D5FC2D4EB1
:101CF000B068401CB06030682B4F10B1706940B3C1
:101D00002DE03560B068012829D1002404EB84005F
:101D100007EB800000F08EFC641C052CF6D32248F3
:101D2000643000F087FC2048783000F083FC1E48C7
:101D30008C3000F07FFC1C48A03000F07BFC1A487F
:101D4000B43000F077FC1848643070631430B0632E
:101D500005E03068E96AC06A884200D83560706A78
:101D6000401C7062E86A3169884200D9306100EB3A
:101D7000800007EB8000291D00F082FC00F09AFC37
:101D8000706900280CD03068E96AC06A884207D2BE
:101D900006494FF080500860BFF34F8FBFF36F8F3D
:101DA000BDE8F08164000020940C002004ED00E008
:101DB00010B500F071FC0E4C2068A0B90D4800F081
:101DC00039FC0C48143000F035FC0A48E06014304F
:101DD000206100220C210A2000F0F0FD206010B1EB
:101DE00005A100F09DFCBDE8104000F063BC0000C0
:101DF000A00000205C0D0020546D72510000000016
:101E000030B4026C0B46002A0BD0C1681144C1608B
:101E10004468A14201D30168C16030BC1846FEF796
:101E20004BBA30BC70472DE9F041856B164604462D
:101E30000027026CFAB17EB1E068FEF73DFAE16876
:101E4000206C091AE1602268914202D26168081A86
:101E5000E060022E0DD00EE0A068FEF72DFA216C96
:101E6000A0680844A0606168884204D32068A0602C
:101E700001E005B16D1E6D1CA5633846BDE8F0811B
:101E800010B50446006B00F01FFC2046BDE8104072
:101E900000F01ABC10484FF47051420706D0C01D24
:101EA0000D4920F00700411AC1F570510B4A00237B
:101EB0000144C2E900030839103A21F0070111601A
:101EC0004B600B600B1AC0E9001393604FF00040A9
:101ED0005360D06070470000840D0020C8000020CF
:101EE000134E144DA6F1A0074FF08058DFF848902C
:101EF00011E000F0D1FBF068C468201D00F076FB13
:101F0000A868401EA8606868401E686000F0D2FBA8
:101F10002046FFF7B5FF68680028EAD13868012835
:101F2000F9D9C9F80080BFF34F8FBFF36F8FF2E785
:101F3000340D00206400002004ED00E02DE9F0479E
:101F40000E46DDE909841746824691009946089DB0
:101F5000A522206BFEF727FA6FF00301206B01EB3F
:101F60008701084420F0070700202218315C82F81E
:101F70003410315C11B1401C1028F6D3002684F8CF
:101F80004360052D00D30425201DE56200F05DFBB4
:101F900004F1180000F059FBC5F105002461A061AF
:101FA0000020646204EB8001401C4E640528F9D3D4
:101FB000A66584F85C604A465146384600F0E2F96E
:101FC0002060B8F1000F01D0C8F80040BDE8F087EC
:101FD00030B5114900E011460A688242FBD34B68D4
:101FE0005C18844203D1406818444860084643683E
:101FF0001C18944209D1084C103C2468A24209D014
:1020000052681A4442600A6812680260814200D035
:10201000086030BD0460F9E7C800002070B50024F6
:102020000B4D41609142006106D8D11A82699142FC
:1020300006D2011D286907E09A4203D2994201D3D2
:10204000012403E0011DE86800F002FB204670BD9A
:10205000A000002010B5044600F01EFBA06B20B1CC
:10206000002400F027FB204610BD0124F9E7000002
:1020700030B585B0224D3AE00198002837DB039C4B
:10208000606910B1201D00F0B1FA04A800F09CF8BE
:10209000024601980A282AD2DFE800F00505052942
:1020A0001E260505291E0298A16903460144204603
:1020B000FFF7B4FFD8B1616A20468847E06901287C
:1020C00015D1002000900298A169002342181946FA
:1020D000204600F071FF0AE00298A06181181346C3
:1020E0002046FFF79BFF02E0204600F0EDFA0022B9
:1020F00001A9286800F06CFD0028BDD105B030BDF5
:10210000A00000202DE9FC410E46054600F0F8FB3A
:1021100001A800F059F80446019818B100F0BAFE81
:10212000BDE8FC811E4FAEB138690068A0B300263F
:10213000291B3246386800F005FB00F0ABFE002892
:10214000EED118494FF080500860BFF34F8FBFF3B6
:102150006F8FE5E7A542EBD800F09CFEF8682646B5
:10216000C068C468201D00F041FAE06901280FD161
:10217000A0692B46411932462046FFF74FFF38B180
:1021800000200346014600902A46204600F014FF36
:10219000616A20468847C3E7FFE70126C8E70000D9
:1021A000A000002004ED00E00648416B096829B159
:1021B000416BC968C9684968816270474FF0FF3157
:1021C000FAE700006400002070B5054600F0DAFD73
:1021D000064E0446B068844203D200F009F801209C
:1021E00000E0002028602046B46070BDA000002000
:1021F000F8B5144E1EE0C068C4680568201D00F0E4
:10220000F5F9616A20468847E069012812D1A06982
:102210002844A84206D924616060211DF06800F0BE
:1022200017FA07E000200346014600902A462046A0
:1022300000F0C2FEF06801680029DCD13169C6E90E
:102240000310F8BDA0000020BF2080F31188BFF369
:102250004F8FBFF36F8FFEE7084CE068016839B11C
:10226000002139B10020FFF74DFFFFF701FFF4E730
:102270000121F6E7C0680068F5E70000A000002033
:102280002DE9F041044600F007FA94F9455004F1B5
:10229000240609E0606A48B1304600F0CDFD08B17F
:1022A00000F0D2FA6D1E6DB2002DF3DC4FF0FF3658
:1022B00084F8456000F0FEF900F0EEF994F944501E
:1022C00004F1100709E0206948B1384600F0B4FD78
:1022D00008B100F0B9FA6D1E6DB2002DF3DC84F880
:1022E0004460BDE8F04100F0E5B900002DE9F0419F
:1022F0000546002600F004FB214F386808B9FFF7B7
:10230000C9FDF868054236D1ADB30835680704D079
:1023100005F00700C0F10800054465B37868854200
:1023200029D8174910310846046801E021460446BF
:102330006068A84202D220680028F7D13868844239
:1023400019D00E682068086060680836411B1029A3
:1023500004D9601941606560FFF73AFE61687868EA
:10236000401A7860BA68904200D2B860F8680143B9
:102370000020C4E9000100F08DFD3046BDE8F08189
:10238000B800002010B5031F4FF080741C601B1FA5
:1023900021F001011960191F024B0B6014394038FC
:1023A0000A6010BD492200088278012A04D1034B3B
:1023B0000022DA7000F0EABF704700002000002021
:1023C00010B588B004461C2212496846FDF7B9FFD3
:1023D000A0084FF0300107D0012809D03121022890
:1023E00010D0032809D111E08DF80910422002E035
:1023F0008DF8091046208DF80A006846FEF7BDFFEB
:1024000008B010BD8DF809103420F4E78DF80910DC
:102410003920F0E75436000810B588B004461C2275
:102420000D496846FDF78DFF14F0030006D0012822
:1024300006D002280CD0032805D10BE0432000E091
:1024400044208DF811006846FEF797FF08B010BDD4
:102450004520F6E74620F4E738360008F0B5074691
:1024600087B001210520FEF71DFE01218803FEF73C
:1024700019FE244E3046FFF7D3F87015ADF8100062
:1024800001258DF8125018201F4C8DF8130004A957
:102490002046FEF7AFF92015ADF810008DF8125068
:1024A00004208DF8130004A92046FEF7A3F90024A8
:1024B000ADF808400C20ADF80440ADF80A000097D4
:1024C000ADF80640ADF80C4069463046FFF720F9FC
:1024D00025208DF814008DF815400E208DF816007B
:1024E0008DF8175005A8FEF775FC012240F2255122
:1024F0003046FFF7F5F801213046FFF787F807B0BF
:10250000F0BD00000038014000080140F0B504466D
:1025100087B001210920FEF7C5FD01218804FEF7DF
:10252000A9FD234E3046FFF77BF83015ADF81000BB
:1025300001258DF8125018201E4F8DF8130004A9A4
:102540003846FEF757F9E802ADF8100004208DF880
:10255000130004A93846FEF74DF900940024ADF8A5
:1025600008400C20ADF80440ADF80A00ADF8064074
:10257000ADF80C4069463046FFF7CAF827208DF8C1
:1025800014008DF815400F208DF816008DF81750A7
:1025900005A8FEF71FFC012240F225513046FFF747
:1025A0009FF801213046FFF731F807B0F0BD000079
:1025B00000480040000C0140037842187E2B02D0F6
:1025C0007B2B09D006E043788B420ED112F8012C08
:1025D0005E2A0AD1FFF71EB943788B4205D112F863
:1025E000012C7D2A01D1FFF7DFBE7047D0E901320F
:1025F00001699A60D0E901235A604A68824201D198
:1026000082684A60002202610868401E086008680B
:102610007047000008B9064800680021006B01E01F
:10262000401C491C0278A52AFAD0C1F38F007047DC
:102630006400002000F108014FF0FF32C0E90112F0
:10264000C160016100210160704700210161704794
:1026500030B50C68621C02D000F1080202E0026989
:1026600004E01A4653681D68A542FAD953684B60C6
:1026700099608A60516008610168491C016030BD41
:1026800042684A6093688B60936859609160086102
:102690000168491C01607047BF2080F31188BFF3B7
:1026A0004F8FBFF36F8F02480168491C016070476C
:1026B000B400002003490868401E086001D180F37F
:1026C00011887047B400002070B5002818D00D4D57
:1026D000A0F108046068E968084211D02268002A65
:1026E0000ED18843606000F00BF9606869680844A7
:1026F00068602046FFF76CFCBDE8704000F0CABB84
:1027000070BD0000B80000204FF0E0200021016102
:102710008161024941610721016170473F19010050
:1027200010B5074B002253F832401CB1521C0A2A44
:10273000F9D310BD43F8321003EBC201486010BD5D
:10274000440C002070B515460E460446FFF7A4FF62
:1027500094F944104FF00000491C01D184F8440062
:1027600094F94510491C01D184F84500FFF7A2FFF8
:10277000A06B28B92A46314604F1240000F07CF809
:102780002046BDE87040FFF77BBD000010B5020099
:1027900009D000F0B5F800211046FFF775FA00F0F7
:1027A00079FB002807D104494FF080500860BFF33F
:1027B0004F8FBFF36F8F10BD04ED00E070B504467E
:1027C000FFF76AFF194D04B92C68201DFFF70EFFB3
:1027D000A06A18B104F11800FFF708FF686A401CEE
:1027E00068622868844207D1211D1148FFF748FF1D
:1027F0006868401C686007E0A868401EA860204622
:10280000FFF73EFBFFF7D0FCFFF754FF6869002895
:102810000AD02868844207D106494FF080500860EA
:10282000BFF34F8FBFF36F8F70BD000064000020B7
:10283000340D002004ED00E002490A6A0260C96814
:10284000416070476400002001490120C861704761
:1028500064000020024610B506480C460168104688
:102860001831FFF7F5FE2046BDE810400121FFF7C3
:102870000BBA00006400002070B5154602460848F7
:102880000C46016810461831FFF7FAFE0DB14FF003
:10289000FF3429462046BDE87040FFF7F5B9000037
:1028A000640000201CB512480024CDE900402346F6
:1028B000402210A1114800F02BFA012816D100F097
:1028C0005DFB012812D1BF2080F31188BFF34F8F29
:1028D000BFF36F8F06484FF0FF312C388162012122
:1028E0004161C460BDE81C4000F03AB81CBD000066
:1028F0009000002049444C4500000000E11E000803
:102900000248016B491C016370470000640000200D
:10291000114B10B5186B10B10120D86110BD00200B
:10292000D86118690D4900E0401E00EB800251F8A3
:102930002220002AF8D000EB800201EB820101F195
:1029400008044A6852684A60A24201D152684A604B
:10295000D1681960186110BD64000020940C00203B
:10296000094810B5016841F47F010160016841F038
:102970007F410160FFF7C8FE044900200860FDF7B1
:1029800015FC002010BD000020ED00E0B400002088
:1029900010B5BF2080F31188BFF34F8FBFF36F8F47
:1029A00000F0FCF918B104494FF080500860002095
:1029B00080F3118810BD000004ED00E070B50D003B
:1029C000064612D006FB05F04830FFF78FFC0400E6
:1029D00009D004F1480120464DB10160C0E90F65FE
:1029E000012100F007F8204670BD0020ECE70060F0
:1029F000F4E7000070B50D460446FFF74DFED4E93C
:102A00000F12206801FB020060600020A0632068B4
:102A1000A0600146E06B401E00FB0210E0604FF03A
:102A2000FF3084F8440084F8450004F110004DB1F3
:102A3000FFF700FE04F12400FFF7FCFDFFF73AFE6C
:102A4000012070BD21690029F8D000F0F5F90028B7
:102A5000F4D004494FF080500860BFF34F8FBFF3AC
:102A60006F8FEBE704ED00E02DE9FF4F002683B008
:102A70009A468B460446B1464FF08057DFF8E48013
:102A8000FFF70AFEA06BE16B884206D3BAF1020F92
:102A900003D00598C8B1DEB11EE052465946204623
:102AA000FFF7C1F9616A19B104F1240000F0C4F91B
:102AB00028B1C8F80070BFF34F8FBFF36F8FFFF7D7
:102AC000F9FD012007B0BDE8F08FFFF7F3FD21E02D
:102AD0006846FFF7B1FE0126FFF7ECFDFFF710FF98
:102AE000FFF7DAFD94F94400401C01D184F84490CA
:102AF00094F94500401C01D184F84590FFF7DAFDB8
:102B000005A9684600F0DCF830B12046FFF7B8FBB5
:102B100000F0C0F90020D5E7FFF7BEFDA06BE16B28
:102B2000884201D1012500E00025FFF7C3FD95B1E2
:102B300004F110000599FFF78DFE2046FFF7A0FB7A
:102B400000F0A8F900289BD1C8F80070BFF34F8FA0
:102B5000BFF36F8F94E72046FFF792FB00F09AF9DE
:102B60008EE7000004ED00E02DE9F0410446174631
:102B7000BF20EFF3118680F31188BFF34F8FBFF3AF
:102B80006F8FA06BE26B904206D3022B04D0002023
:102B900086F31188BDE8F08194F945501A46204625
:102BA000FFF741F9681C04D06D1C84F845500120E2
:102BB000EEE7606A0028FAD004F1240000F03CF946
:102BC0000028F4D0002FF2D001203860EFE7000099
:102BD0002DE9F747002683B08A46044637464FF072
:102BE0008058DFF8D890FFF757FDA56BC5B1514667
:102BF0002046FFF705F96D1EA563206950B104F169
:102C0000100000F019F928B1C9F80080BFF34F8F08
:102C1000BFF36F8FFFF74EFD012006B0BDE8F087D0
:102C2000059808B11EB106E0FFF744FD27E06846AD
:102C3000FFF702FE0126FFF73DFDFFF761FEFFF7FC
:102C40002BFD94F94400401C01D184F8447094F9A0
:102C50004500401C01D184F84570FFF72BFD05A904
:102C6000684600F02DF8002820460AD0FFF708FB40
:102C700000F010F92046FFF7EDF90028B3D000204E
:102C8000CBE7FFF7E7F990B104F124000599FFF7CE
:102C9000E1FD2046FFF7F4FA00F0FCF80028A2D18D
:102CA000C9F80080BFF34F8FBFF36F8F9BE72046BB
:102CB000FFF7E6FA00F0EEF895E7000004ED00E01B
:102CC0002DE9F0410C460546FFF7E6FC0F4EF26891
:102CD0006B682068D11A471C07D02F68366AB74244
:102CE00009D0934207D8012400E00024FFF7E2FC5A
:102CF0002046BDE8F081884205D9401A2060284668
:102D0000FFF79AFDF1E700202060ECE76400002067
:102D10002DE9FF5F8346DDE90E87994616468A4610
:102D20009000FFF7E3FA05001AD06020FFF7DEFA03
:102D3000040012D025630021CDE90241CDE90087CE
:102D40004B46324651465846FFF7F8F82046FEF704
:102D5000C9FF012004B0BDE8F09F2846FFF7B4FC8E
:102D60004FF0FF30F6E700000548416919B1006BEC
:102D700018B1002070470120704702207047000002
:102D8000640000200148C068704700006400002013
:102D90000148C06870470000640000202DE9F04140
:102DA000234E0027306B40B1B069401CB061F06920
:102DB00000B101273846BDE8F081F5686D1CF5606B
:102DC00008D1706BB16B7163B063306A401C3062C4
:102DD000FFF7EAF9B06A8542E9D3706B006838B151
:102DE000706BC068C4686068854204D2B062DEE778
:102DF0004FF0FF30FAE7201DFFF7F8FBA06A18B18B
:102E000004F11800FFF7F2FBE06A3169884200D94B
:102E10003061084900EB800001EB8000211DFFF7C5
:102E20002FFCE06A3168C96A8842D6D30127D4E70B
:102E300064000020940C002070B5C068C46804F1E0
:102E400018000646FFF7D2FB104D286B10B1314633
:102E50000F480EE0201DFFF7C9FBE06A2969884290
:102E600000D928610A4900EB80008C3901EB800011
:102E7000211DFFF705FCE06A2968C96A884202D96A
:102E80000120E86170BD002070BD000064000020DA
:102E9000200D00202DE9F04700242746FFF7FCFB1A
:102EA000254D286B401E2863286BE0BBA86823498A
:102EB0000126C0B3A1F18C098846D8F80010E1B111
:102EC000D8F80C00C46804F11800FFF78FFB201D30
:102ED000FFF78CFBE06A2969884200D9286100EB82
:102EE000800109EB8100211DFFF7CAFBE06A296818
:102EF000C96A8842E1D3EE61DFE70CB1FFF754F90C
:102F0000AC693CB1FFF74AFF00B1EE61641EF9D134
:102F10000020A861E86930B1094901273807086035
:102F2000BFF34F8F00E001E0BFF36F8FFFF7C2FBED
:102F30003846BDE8F087000064000020200D002026
:102F400004ED00E02DE9F04706461F461546884689
:102F50002820DDF82090FFF7C9F904000BD0FEF718
:102F600027FF04F11C01C4F818802660A1E8A00224
:102F7000201DFFF76AFB2046BDE8F0871CB5002442
:102F8000FEF716FF0848006860B107490A20091DCE
:102F9000CDE9000100234FF4FA7204A10548FFF7C0
:102FA000B7FE044620461CBDA0000020546D7220D0
:102FB0005376630059220008FEB5104D1F460346A4
:102FC0002C680020089E002C0ED08DE80E000629EB
:102FD0000DDAFFF7C9FE02284FF0000305D00022EA
:102FE00069462868FFF740FDFEBD3246F8E700233A
:102FF0003A4669462046FFF7B7FDFEBDA000002017
:1030000010B51CA186B0D1E90021CDE9012104460B
:103010007E208DF80C0004208DF80E0008208DF81D
:103020000D0054F8030FCDF80F005E208DF813004B
:10303000082103A8FEF7EEFB2068CDF806002179F1
:103040000E4A01A8FEF778FD0D4801990160BDF810
:10305000081081800A4920798871FFF793FE0246A3
:10306000002003460090074802210068FFF7A4FFF4
:1030700006B010BD6F0000000000000085090020B0
:1030800055000020480000203EB504467E208DF803
:10309000040004208DF8060008208DF80500D4F8FF
:1030A0000500CDF807005E208DF80B00082101A86F
:1030B000FEF7B0FB617A0C4AE01CFEF73DFD0B48C1
:1030C00054F8031F0160A18881800849A0798871A4
:1030D000FFF758FE024600200346009004480221F4
:1030E0000068FFF769FF3EBD8509002055000020FC
:1030F0004800002030B589B0044603A9C01CFEF783
:103100006BFDE079254D30308DF818002D208DF8BD
:103110001C002878072812D902202870FDF702FD2C
:103120000320FDF7FFFC0420FDF7FCFC0520FDF764
:10313000F9FC0620FDF7F6FC0720FDF7F3FC082359
:1031400003AA29780020FDF7A1FD012306AA29780A
:103150000F20FDF79BFD012307AA29781120FDF719
:1031600095FD28780921401C28707E208DF80000EC
:103170000B208DF8020009208DF80100D4F803001F
:10318000CDF80300E0798DF807005E208DF8080087
:103190006846FEF73FFB09B030BD00005400002038
:1031A00070B588B0044603A9C01CFEF715FDE07990
:1031B00007A930308DF81800207AFEF745FD234D21
:1031C00006462878072812D902202870FDF7AAFCA5
:1031D0000320FDF7A7FC0420FDF7A4FC0520FDF764
:1031E000A1FC0620FDF79EFC0720FDF79BFC0823B1
:1031F00003AA29780020FDF749FD012306AA2978B2
:103200000F20FDF743FD334607AA29781120FDF76B
:103210003DFD28780921401C28707E208DF8000093
:103220000B208DF8020009208DF80100D4F803006E
:10323000CDF80300E0798DF807005E208DF80800D6
:103240006846FEF7E7FA08B070BD000054000020A1
:1032500070B58AB0044605A9C01CFEF7BDFCE07934
:1032600009A930308DF82000207CFEF7EDFC204DC0
:1032700006462878072812D902202870FDF752FC4C
:103280000320FDF74FFC0420FDF74CFC0520FDF763
:1032900049FC0620FDF746FC0720FDF743FC082308
:1032A00005AA29780020FDF7F1FC012308AA297856
:1032B0000F20FDF7EBFC01230EA229781020FDF76B
:1032C000E5FC334609AA29781120FDF7DFFC2878B0
:1032D0001222401C287021466846FCF7EDFF1120A1
:1032E0008DF8020012216846FEF794FA0AB070BD0C
:1032F000540000202A00000089B2FEF701B889B20C
:10330000FDF7FEBF70B50C4617E0032C02D26FF03C
:10331000020070BD4578A54201D9204670BD46190E
:1033200016F8011C5E2902D06FF0010070BD29461D
:1033300000F009F8611B30468CB201787E29E4D098
:103340004FF0FF3070BD8278102A18D009DC032AB4
:103350000FD0062A0FD00A2A0FD00E2A15D1FFF758
:103360001FBF1F2A0DD0292A0DD02B2A0DD1FFF700
:10337000C6BFFFF745BEFFF787BEFFF7BBBEFFF72F
:1033800067BFFEF7C5BBFFF7B7BF70472DE9F04138
:103390001D48FEF703FC0646642832D200241A4D6D
:1033A00040F2ED311948FDF706F8184B7B2006EB8B
:1033B00086071870052000EB4701597002209870AD
:1033C000DE704FF0000C11E004EB840203EB4202CC
:1033D000601C107182F805C082F806C0AC79D47107
:1033E0002C689460AC889481ED1DC4B2B442EBD3D8
:1033F00003EB47027D201071BDE8F0410348FDF763
:103400007FBFBDE8F08100008509002098050020FD
:103410000000000000000000002F00000000070076
:10342000070000147F147F1400242A7F2A120062F0
:10343000640813230036495522500000050300009C
:1034400000001C224100000041221C000014083E24
:1034500008140008083E0808000000A060000008EA
:10346000080808080000606000000020100804023E
:10347000003E5149453E0000427F400000426151FC
:103480004946002141454B31001814127F10002796
:1034900045454539003C4A49493000017109050359
:1034A00000364949493600064949291E000036368A
:1034B00000000000563600000008142241000014ED
:1034C00014141414000041221408000201510906CA
:1034D00000324959513E007C1211127C007F49494B
:1034E0004936003E41414122007F4141221C007F7C
:1034F00049494941007F09090901003E4149497A8A
:10350000007F0808087F0000417F41000020404103
:103510003F01007F08142241007F40404040007F6F
:10352000020C027F007F0408107F003E4141413EB3
:10353000007F09090906003E4151215E007F0919FB
:1035400029460046494949310001017F0101003FF8
:103550004040403F001F2040201F003F4038403F78
:1035600000631408146300070870080700615149DC
:10357000454300007F41410000552A552A5500006F
:1035800041417F00000402010204004040404040ED
:10359000000001020400002054545478007F484485
:1035A000443800384444442000384444487F0038BC
:1035B0005454541800087E0901020018A4A4A47CE5
:1035C000007F080404780000447D400000408084AF
:1035D0007D00007F102844000000417F4000007CF7
:1035E00004180478007C0804047800384444443803
:1035F00000FC242424180018242418FC007C08044F
:10360000040800485454542000043F444020003C27
:103610004040207C001C2040201C003C4030403CAE
:10362000004428102844001CA0A0A07C004464543E
:103630004C4414141414141441542B53455450493D
:10364000443D36383645353138430000000000002F
:103650000000000041542B53455443483D000000F6
:10366000000000000000000000000000000000005A
:103670009036000800000020D0000000280100085B
:1036800060370008D0000020184F000044010008F7
:103690000204060800000000010203040102030402
:1036A00006070809000000000000000000000000FC
:1036B0000000010100000000000000000000000008
:1036C00000000000000000000000000000000000FA
:1036D00000000000000000000000000000000000EA
:1036E0000000000002FFFFFFFFFFFFFF00000000DF
:1036F00000000000000000000000000000000000CA
:1037000000000000000000000000000000000000B9
:1037100000000000000000000000000000000000A9
:103720000000000000000000000000000000000099
:103730000000000000000000000000000000000089
:1037400000000000AAAAAAAA0000000000000000D1
:103750000000000000000000000000000000000069
:04000005080000ED02
:00000001FF
