:020000040800F2
:10000000984C002021020008BF0300089D0300084F
:10001000BD030008D30200086B05000800000000C3
:10002000000000000000000000000000890100083E
:10003000D502000800000000CD010008550C0008A2
:100040003B0200083B0200083B0200083B0200089C
:100050003B0200083B0200083B0200083B0200088C
:100060003B0200083B0200083B0200083B0200087C
:100070003B0200083B0200083B0200083B0200086C
:100080003B0200083B0200083B0200083B0200085C
:100090003B0200083B0200083B0200083B0200084C
:1000A0003B0200083B0200083B0200083B0200083C
:1000B0003B0200083B0200083B0200083B0200082C
:1000C0003B0200083B0200083B0200083B0200081C
:1000D0003B0200083B0200083B020008D104000874
:1000E0003B0200083B0200083B02000800F002F857
:1000F00000F03AF80AA090E8000C82448344AAF188
:100100000107DA4501D100F02FF8AFF2090EBAE885
:100110000F0013F0010F18BFFB1A43F0010318473B
:100120001C0D00003C0D0000103A24BF78C878C1B7
:10013000FAD8520724BF30C830C144BF04680C60ED
:10014000704700000023002400250026103A28BF35
:1001500078C1FBD8520728BF30C148BF0B60704739
:100160001FB51FBD10B510BD00F07DF81146FFF79B
:10017000F7FF00F003FA00F09BF803B4FFF7F2FF7B
:1001800003BC00F09FF80000224B19680868B0E833
:10019000F00F80F30988BFF36F8F4FF0000080F3FA
:1001A00011884EF00D0E70470000000006480068F0
:1001B000006880F3088862B661B6BFF34F8FBFF363
:1001C0006F8F00DF00BF00BF08ED00E0EFF3098094
:1001D000BFF36F8F0F4B1A6820E9F00F106008B55E
:1001E0004FF0BF0080F31188BFF34F8FBFF36F8FC5
:1001F00000F0F6FC4FF0000080F31188BDE80840E5
:1002000019680868B0E8F00F80F30988BFF36F8FB2
:10021000704700BF14000020EFF305807047000016
:100220000948804709480047FEE7FEE7FEE7FEE78A
:10023000FEE7FEE7FEE7FEE7FEE7FEE704480549C6
:10024000054A064B7047000081040008ED000008D5
:1002500098460020984C002098480020984800209C
:10026000704770477047754600F028F8AE460500A5
:100270006946534620F00700854618B020B5FFF7C1
:10028000DDFFBDE820404FF000064FF000074FF0C3
:1002900000084FF0000B21F00701AC46ACE8C009A4
:1002A000ACE8C009ACE8C009ACE8C0098D467047AD
:1002B0000446AFF300802046FFF75FFF0048704719
:1002C0003446002001491820ABBEFEE7260002009C
:1002D0007047FEE77047000008B50121082000F0D4
:1002E0006FF80420ADF8000010208DF80300012005
:1002F0008DF802006946024800F004F808BD0000CD
:10030000000C0140F0B5CC78002204F00F03E406A5
:1003100001D58C7823430C784FF00F0C4FF0010E71
:10032000DCB105680E880EFA02F42640A64210D110
:1003300096000CFA06F725EA070703FA06F5CE78C9
:100340003D43282E02D0482E02D002E0446100E056
:100350000461521C082AE5D305600A88FF2A1CD9CB
:100360004468002202F108060EFA06F50E882E40B7
:10037000AE420ED196000CFA06F7BC4303FA06F71C
:10038000CE783C43282E00D14561CE78482E00D14E
:100390000561521C082AE5D34460F0BDFEE7000069
:1003A0000149042008607047140C014002480168AC
:1003B00081F00401016070470C0C0140FEE77047BA
:1003C000044A0029916901D0014300E08143916111
:1003D00070470000001002400CB500222648009231
:1003E0000192016841F4803101604FF4A06301681B
:1003F00001F4003101910099491C0091019911B952
:1004000000999942F3D10168890333D50121019103
:100410001A490A6842F010020A600A6822F00302D0
:100420000A600A6842F002020A604168416041685D
:100430004160416841F480614160416821F47C1170
:100440004160416841F4E8114160016841F0807108
:10045000016001688901FCD5416821F00301416018
:10046000416841F0020141604168C1F38101022904
:10047000FAD10CBD0192FEE70010024000200240BC
:100480000F4810B5016841F00101016041680D4A53
:100490001140416001680C4A11400160016821F47B
:1004A00080210160416821F4FE0141604FF41F0189
:1004B0008160FFF791FF05494FF00060086010BDB3
:1004C000001002400000FFF8FFFFF6FE08ED00E01C
:1004D00010B50F4C40F22551204600F023F80028BB
:1004E00014D0204600F03DF80A4C2188FE290DD298
:1004F0002188094AC1F30D015054FFF751FF074805
:100500000749006808602088401C208010BD00005A
:1005100000480040080000206C000020000000207F
:100520000400002070B501F01F0501260024C1F36E
:10053000421306FA05F2012B0FD0022B0FD0838A4B
:100540004FEA11210088134206FA01F600EA06007C
:1005500001D000B10124204670BD8389F0E7038AF1
:10056000EEE78088C0F308007047FEE74FF4FA74A6
:10057000FFF71CFF204600F09DFAF9E71CB5FFF7D6
:10058000ABFE07490120CDE900010023802205A12F
:10059000074800F075FB00F0F1FA00201CBD0000D8
:1005A0000C00002073746172745F7461736B0000DF
:1005B000610900082DE9F041184E0F460446F56820
:1005C0003068001D00F0ECF938B9306890F82C1054
:1005D00001208840316981433161601C07D137B106
:1005E0003168BDE8F041091D0D4800F012BA3068CD
:1005F0002C44AC424460316801F1040104D2B06B78
:10060000BDE8F04100F0EDB9706B00F0EAF9B06AB6
:10061000844200D2B462BDE8F081000014000020E2
:10062000200200202DE9F041054600F0FFF92E4E92
:10063000B068401CB06030682C4F10B1706940B396
:100640002DE03560B068012829D1002404EB840036
:1006500007EB800000F0B7F9641C052CF6D32348A3
:10066000643000F0B0F92148783000F0ACF91F4850
:100670008C3000F0A8F91D48A03000F0A4F91B4808
:10068000B43000F0A0F91948643070631430B063DE
:1006900005E03068E96AC06A884200D83560706A4F
:1006A0000121401C7062E86A326981401143316166
:1006B00000EB800007EB8000291D00F0AAF900F094
:1006C000C3F9706900280CD03068E96AC06A8842B2
:1006D00007D207494FF080500860BFF34F8FBFF338
:1006E0006F8FBDE8F0810000140000206C01002035
:1006F00004ED00E010B50446006B00F0AFF92046B1
:10070000BDE8104000F0AAB910484FF488414207F4
:1007100006D0C01D0D4920F00700411AC1F58841DF
:100720000B4A00230144C2E900030839103A21F0C2
:10073000070111604B600B600B1AC0E90013936056
:100740004FF000405360D06070470000340200203A
:1007500064000020134E144DA6F1A0074FF08058FE
:10076000DFF8489011E000F061F9F068C468201DDE
:1007700000F016F9A868401EA8606868401E68600E
:1007800000F062F92046FFF7B5FF68680028EAD15B
:1007900038680128F9D9C9F80080BFF34F8FBFF33B
:1007A0006F8FF2E70C0200201400002004ED00E03F
:1007B0002DE9F0479A46DDE9096481466FF00303AD
:1007C000206B03EB82021044089D20F007070020F5
:1007D00023180A5C83F834200A5C12B1401C1028EC
:1007E000F6D34FF0000884F84380052D00D304258C
:1007F000201DE56200F0F2F804F1180000F0EEF8B8
:10080000C5F105002461A0616462C4F8448084F8E5
:10081000488052464946384600F090F82060002E45
:1008200000D03460BDE8F08730B5114900E01146D2
:100830000A688242FBD34B685C18844203D140684B
:1008400018444860084643681C18944209D1084C73
:10085000103C2468A24209D052681A4442600A68D7
:1008600012680260814200D0086030BD0460F9E780
:10087000640000200648416B096829B1416BC968D2
:10088000C9684968816270474FF0FF31FAE700009C
:1008900014000020BF2080F31188BFF34F8FBFF3F7
:1008A0006F8FFEE72DE9F0410546002600F090F934
:1008B000214F386808B9FFF727FFF868054236D19D
:1008C000ADB30835680704D005F00700C0F1080093
:1008D000054465B37868854229D817491031084620
:1008E000046801E0214604466068A84202D22068FC
:1008F0000028F7D13868844219D00E682068086053
:1009000060680836411B102904D960194160656090
:10091000FFF78AFF61687868401A7860BA68904289
:1009200000D2B860F86801430020C4E9000100F07B
:100930002DFA3046BDE8F0815400002010B5031FA9
:100940004FF080741C601B1F21F001011960191FFA
:10095000024B0B60143940380A6010BD950800083E
:100960001CB500F063F809490220CDE9000100231D
:10097000802207A1094800F083F90448001F00689D
:1009800000F0B0F8BDE81C4000F05EB81000002098
:1009900073746172745F7461736B00006D0500089D
:1009A000D0E9013201699A60D0E901235A604A68AE
:1009B000824201D182684A60002202610868401EBA
:1009C00008600868704700F108014FF0FF32C0E985
:1009D0000112C160016100210160704700210161C5
:1009E000704730B50C68621C02D000F1080202E0CA
:1009F000026904E01A4653681D68A542FAD9536893
:100A00004B6099608A60516008610168491C01600F
:100A100030BD42684A6093688B609368596091600A
:100A200008610168491C016070470000BF2080F325
:100A30001188BFF34F8FBFF36F8F02480168491CC5
:100A4000016070475000002003490868401E08609C
:100A500001D180F3118870475000002070B5002844
:100A600018D00D4DA0F108046068E968084211D063
:100A70002268002A0ED18843606000F0A9F86068FF
:100A80006968084468602046FFF7CEFEBDE8704004
:100A900000F07CB970BD0000540000204FF0E02051
:100AA00000210161816102494161072101617047B3
:100AB0003F19010010B5020009D000F089F80021AB
:100AC0001046FFF777FD00F061F9002807D10449CF
:100AD0004FF080500860BFF34F8FBFF36F8F10BD92
:100AE00004ED00E070B50446FFF7A0FF204D04B907
:100AF0002C68201DFFF754FF58B9E06A1D4A00EB2F
:100B0000800152F8211021B90121814028698843D0
:100B10002861A06A18B104F11800FFF741FF686A64
:100B2000401C68622868844208D11248211DA03008
:100B3000FFF76FFF6868401C686007E0A868401E08
:100B4000A8602046FFF7D6FDFFF794FEFFF77CFF75
:100B5000686900280AD02868844207D106494FF006
:100B600080500860BFF34F8FBFF36F8F70BD0000E0
:100B7000140000206C01002004ED00E01CB51048BA
:100B80000024CDE90040234680220EA10F4800F04A
:100B900077F8012812D1BF2080F31188BFF34F8F5F
:100BA000BFF36F8F06484FF0FF312C38816201216F
:100BB0004161C460BDE81C4000F034B81CBD0000B9
:100BC0004000002049444C45000000005507000843
:100BD0000248016B491C01637047000014000020AB
:100BE0000E4A106B10B10120D06170470020D06117
:100BF00010690B49B0FA80F0C0F11F0000EB8000D3
:100C000001EB800000F108034168496841609942A6
:100C100001D149684160C868106070471400002025
:100C20006C010020094810B5016841F47F010160A2
:100C3000016841F07F410160FFF730FF0449002067
:100C40000860FFF7B3FA002010BD000020ED00E0BF
:100C50005000002010B5BF2080F31188BFF34F8FE4
:100C6000BFF36F8F00F038F818B104494FF080508F
:100C70000860002080F3118810BD000004ED00E042
:100C80002DE9FF5F8346DDE90E87994616468A46C1
:100C90009000FFF707FE05001AD04C20FFF702FE78
:100CA000040012D025630021CDE90241CDE900877F
:100CB0004B46324651465846FFF77AFD2046FFF72D
:100CC000B1FC012004B0BDE8F09F2846FFF7C6FE46
:100CD0004FF0FF30F6E700002DE9F041294F0026E4
:100CE000386B40B1B869401CB861F86900B10126A1
:100CF0003046BDE8F081FD686D1CFD6008D1786B61
:100D0000B96B7963B863386A401C3862FFF7B2FD8B
:100D1000B86ADFF87480854209D3786B006880B1C7
:100D2000786BC068C468606885420DD2B862386864
:100D3000C06A00EB800158F821000128D5D90126AE
:100D4000D3E74FF0FF30F1E7201DFFF729FEA06A3F
:100D500018B104F11800FFF723FEE06A01213A6997
:100D600081401143396100EB800108EB8100211DB6
:100D7000FFF74FFEE06A3968C96A8842CDD3012681
:100D8000CBE70000140000206C0100202DE9F047A3
:100D900000242746FFF74AFE254D286B401E286396
:100DA000286BE8BBA86823490126C8B3A1F18C09C8
:100DB0008846D8F80010E9B1D8F80C00C46804F1EE
:100DC0001800FFF7EDFD201DFFF7EAFDE06A2A6934
:100DD00006FA00F11143296100EB800109EB810063
:100DE000211DFFF716FEE06A2968C96A8842E0D330
:100DF000EE61DEE70CB1FFF73DFDAC693CB1FFF7FA
:100E00006BFF00B1EE61641EF9D10020A861E869B2
:100E100030B10949012738070860BFF34F8F00E060
:100E200001E0BFF36F8FFFF70FFE3846BDE8F08794
:100E300014000020F801002004ED00E05C0E000822
:100E4000000000206C00000028010008C80E000807
:100E50006C0000202C4C0000440100080000000041
:100E60000000000000000000000000000000000082
:100E70000000000000000000000000000000000072
:100E80000000000000000000000000000000000062
:100E90000000000000000000000000000000000052
:100EA000000000000000000000000000AAAAAAAA9A
:100EB0000000000000000000000000000000000032
:080EC00000000000000000002A
:04000005080000ED02
:00000001FF
